:03000000020800F3
:0C080000787FE4F6D8FD758120020847DF
:0F08F100080874616B6570696300C180011200B3
:1008DB00758920758DFD758BFDD28EC29FD29ED2F0
:0608EB00AFD2ACD29C224A
:1008B600C2AC5390FDE4F51374082513F8E6F599D8
:1008C6005390FB3099FDC2990513E513B407E9531C
:0508D60090F7D2AC22F6
:10088C001208DB7580FF7590FFC2AF53907F7580A7
:10089C00FFE5805401F51270093000065390FE12EA
:0A08AC0008B6E51224FF920080E177
:03002300020901CE
:06090100C2985390BF32C2
:10080C0002088CE493A3F8E493A34003F68001F26E
:10081C0008DFF48029E493A3F85407240CC8C333ED
:10082C00C4540F4420C8834004F456800146F6DFBC
:10083C00E4800B01020408102040809008F1E47E53
:10084C00019360BCA3FF543F30E509541FFEE493B1
:10085C00A360010ECF54C025E060A840B8E493A378
:10086C00FAE493A3F8E493A3C8C582C8CAC583CAA3
:10087C00F0A3C8C582C8CAC583CADFE9DEE780BE5B
:0109000000F6
:00000001FF
